{
  "contractName": "CryptoPlant",
  "abi": [
    {
      "inputs": [],
      "stateMutability": "nonpayable",
      "type": "constructor"
    },
    {
      "inputs": [
        {
          "internalType": "address",
          "name": "",
          "type": "address"
        }
      ],
      "name": "funders",
      "outputs": [
        {
          "internalType": "string",
          "name": "name",
          "type": "string"
        },
        {
          "internalType": "uint256",
          "name": "amount",
          "type": "uint256"
        },
        {
          "internalType": "string",
          "name": "message",
          "type": "string"
        }
      ],
      "stateMutability": "view",
      "type": "function",
      "constant": true
    },
    {
      "inputs": [],
      "name": "owner",
      "outputs": [
        {
          "internalType": "address",
          "name": "",
          "type": "address"
        }
      ],
      "stateMutability": "view",
      "type": "function",
      "constant": true
    },
    {
      "stateMutability": "payable",
      "type": "receive",
      "payable": true
    },
    {
      "inputs": [
        {
          "internalType": "address",
          "name": "_user",
          "type": "address"
        },
        {
          "internalType": "string",
          "name": "_name",
          "type": "string"
        },
        {
          "internalType": "uint256",
          "name": "_amount",
          "type": "uint256"
        },
        {
          "internalType": "string",
          "name": "_message",
          "type": "string"
        }
      ],
      "name": "AddFunder",
      "outputs": [],
      "stateMutability": "payable",
      "type": "function",
      "payable": true
    },
    {
      "inputs": [],
      "name": "withdrawMoney",
      "outputs": [],
      "stateMutability": "nonpayable",
      "type": "function"
    }
  ],
  "bytecode": "0x608060405234801561001057600080fd5b50336000806101000a81548173ffffffffffffffffffffffffffffffffffffffff021916908373ffffffffffffffffffffffffffffffffffffffff160217905550610af7806100606000396000f3fe6080604052600436106100435760003560e01c8063031b36771461004f5780633b5850d51461008e5780638da5cb5b146100aa578063ac446002146100d55761004a565b3661004a57005b600080fd5b34801561005b57600080fd5b5061007660048036038101906100719190610432565b6100ec565b60405161008593929190610508565b60405180910390f35b6100a860048036038101906100a391906106ae565b610226565b005b3480156100b657600080fd5b506100bf6102bf565b6040516100cc919061075c565b60405180910390f35b3480156100e157600080fd5b506100ea6102e3565b005b600160205280600052604060002060009150905080600001805461010f906107a6565b80601f016020809104026020016040519081016040528092919081815260200182805461013b906107a6565b80156101885780601f1061015d57610100808354040283529160200191610188565b820191906000526020600020905b81548152906001019060200180831161016b57829003601f168201915b5050505050908060010154908060020180546101a3906107a6565b80601f01602080910402602001604051908101604052809291908181526020018280546101cf906107a6565b801561021c5780601f106101f15761010080835404028352916020019161021c565b820191906000526020600020905b8154815290600101906020018083116101ff57829003601f168201915b5050505050905083565b604051806060016040528084815260200183815260200182815250600160008673ffffffffffffffffffffffffffffffffffffffff1673ffffffffffffffffffffffffffffffffffffffff16815260200190815260200160002060008201518160000190816102959190610983565b506020820151816001015560408201518160020190816102b59190610983565b5090505050505050565b60008054906101000a900473ffffffffffffffffffffffffffffffffffffffff1681565b60008054906101000a900473ffffffffffffffffffffffffffffffffffffffff1673ffffffffffffffffffffffffffffffffffffffff163373ffffffffffffffffffffffffffffffffffffffff1614610371576040517f08c379a000000000000000000000000000000000000000000000000000000000815260040161036890610aa1565b60405180910390fd5b60003390508073ffffffffffffffffffffffffffffffffffffffff166108fc479081150290604051600060405180830381858888f193505050501580156103bc573d6000803e3d6000fd5b5050565b6000604051905090565b600080fd5b600080fd5b600073ffffffffffffffffffffffffffffffffffffffff82169050919050565b60006103ff826103d4565b9050919050565b61040f816103f4565b811461041a57600080fd5b50565b60008135905061042c81610406565b92915050565b600060208284031215610448576104476103ca565b5b60006104568482850161041d565b91505092915050565b600081519050919050565b600082825260208201905092915050565b60005b8381101561049957808201518184015260208101905061047e565b60008484015250505050565b6000601f19601f8301169050919050565b60006104c18261045f565b6104cb818561046a565b93506104db81856020860161047b565b6104e4816104a5565b840191505092915050565b6000819050919050565b610502816104ef565b82525050565b6000606082019050818103600083015261052281866104b6565b905061053160208301856104f9565b818103604083015261054381846104b6565b9050949350505050565b600080fd5b600080fd5b7f4e487b7100000000000000000000000000000000000000000000000000000000600052604160045260246000fd5b61058f826104a5565b810181811067ffffffffffffffff821117156105ae576105ad610557565b5b80604052505050565b60006105c16103c0565b90506105cd8282610586565b919050565b600067ffffffffffffffff8211156105ed576105ec610557565b5b6105f6826104a5565b9050602081019050919050565b82818337600083830152505050565b6000610625610620846105d2565b6105b7565b90508281526020810184848401111561064157610640610552565b5b61064c848285610603565b509392505050565b600082601f8301126106695761066861054d565b5b8135610679848260208601610612565b91505092915050565b61068b816104ef565b811461069657600080fd5b50565b6000813590506106a881610682565b92915050565b600080600080608085870312156106c8576106c76103ca565b5b60006106d68782880161041d565b945050602085013567ffffffffffffffff8111156106f7576106f66103cf565b5b61070387828801610654565b935050604061071487828801610699565b925050606085013567ffffffffffffffff811115610735576107346103cf565b5b61074187828801610654565b91505092959194509250565b610756816103f4565b82525050565b6000602082019050610771600083018461074d565b92915050565b7f4e487b7100000000000000000000000000000000000000000000000000000000600052602260045260246000fd5b600060028204905060018216806107be57607f821691505b6020821081036107d1576107d0610777565b5b50919050565b60008190508160005260206000209050919050565b60006020601f8301049050919050565b600082821b905092915050565b6000600883026108397fffffffffffffffffffffffffffffffffffffffffffffffffffffffffffffffff826107fc565b61084386836107fc565b95508019841693508086168417925050509392505050565b6000819050919050565b600061088061087b610876846104ef565b61085b565b6104ef565b9050919050565b6000819050919050565b61089a83610865565b6108ae6108a682610887565b848454610809565b825550505050565b600090565b6108c36108b6565b6108ce818484610891565b505050565b5b818110156108f2576108e76000826108bb565b6001810190506108d4565b5050565b601f82111561093757610908816107d7565b610911846107ec565b81016020851015610920578190505b61093461092c856107ec565b8301826108d3565b50505b505050565b600082821c905092915050565b600061095a6000198460080261093c565b1980831691505092915050565b60006109738383610949565b9150826002028217905092915050565b61098c8261045f565b67ffffffffffffffff8111156109a5576109a4610557565b5b6109af82546107a6565b6109ba8282856108f6565b600060209050601f8311600181146109ed57600084156109db578287015190505b6109e58582610967565b865550610a4d565b601f1984166109fb866107d7565b60005b82811015610a23578489015182556001820191506020850194506020810190506109fe565b86831015610a405784890151610a3c601f891682610949565b8355505b6001600288020188555050505b505050505050565b7f596f7520617265206e6f7420746865206f776e65720000000000000000000000600082015250565b6000610a8b60158361046a565b9150610a9682610a55565b602082019050919050565b60006020820190508181036000830152610aba81610a7e565b905091905056fea2646970667358221220138813397ae6deb166d05cb59e156129e9d1f28a8c0a0b341a093dd12838ed8364736f6c63430008130033",
  "immutableReferences": {},
  "source": "//SPDX-License-Identifier: MIT\r\n\r\npragma solidity ^0.8.0;\r\n\r\ncontract CryptoPlant {\r\n    receive() external payable {}\r\n\r\n    address public owner;\r\n\r\n    struct Funder {\r\n        string name;\r\n        uint amount;\r\n        string message;\r\n    }\r\n    mapping(address => Funder) public funders;\r\n\r\n    constructor() {\r\n        owner = msg.sender;\r\n    }\r\n\r\n    function AddFunder(address _user,string memory _name, uint _amount, string memory _message) payable public{\r\n        funders[_user]= Funder(_name,_amount,_message);\r\n    }\r\n        \r\n    function withdrawMoney() public {\r\n        require(msg.sender == owner,\"You are not the owner\");\r\n        address payable to = payable(msg.sender);\r\n        to.transfer(address(this).balance);\r\n    }\r\n\r\n\r\n\r\n}\r\n",
  "sourcePath": "C:\\Users\\laksh\\Desktop\\GrowTree\\contracts\\CryptoPlant.sol",
  "compiler": {
    "name": "solc",
    "version": "0.8.19+commit.7dd6d404.Emscripten.clang"
  },
  "schemaVersion": "3.4.13",
  "updatedAt": "2023-04-07T07:19:10.723Z",
  "networkType": "ethereum",
  "devdoc": {
    "kind": "dev",
    "methods": {},
    "version": 1
  },
  "userdoc": {
    "kind": "user",
    "methods": {},
    "version": 1
  }
}